:020000040800F2
:1000000000000120191E0008790300087F03000882
:10001000850300088B03000891030008000000001E
:10002000000000000000000000000000111D00089A
:100030009703000800000000311D0008DD1D0008C6
:10004000691E0008691E0008691E0008691E000874
:10005000691E0008691E0008691E0008691E000864
:10006000691E0008691E0008691E0008691E000854
:10007000691E0008691E0008691E0008691E000844
:10008000691E0008691E0008691E0008691E000834
:10009000691E0008691E0008691E0008691E000824
:1000A000691E0008691E0008691E0008691E000814
:1000B000691E0008691E0008691E0008691E000804
:1000C000691E0008691E0008691E0008691E0008F4
:1000D000691E0008691E0008691E0008691E0008E4
:1000E000691E0008691E0008691E0008691E0008D4
:1000F000691E0008691E0008691E0008691E0008C4
:10010000691E00080000000000000000691E0008D1
:10011000691E0008691E0008691E0008691E0008A3
:10012000691E0008691E0008691E0008691E000893
:10013000691E0008691E00080000000000000000A1
:10014000691E0008691E0008691E00080000000002
:10015000000000000000000000000000000000009F
:10016000691E0008691E0008691E0008691E000853
:10017000691E0008691E0008691E0008691E000843
:10018000691E0008691E0008000000000000000051
:04019000691E0008DC
:1001940010B5054C237833B9044B13B10448AFF3BD
:1001A40000800123237010BD0C000020000000001B
:1001B400DC1E000808B5034B1BB103490348AFF329
:1001C400008008BD0000000010000020DC1E0008B4
:1001D40080B500AF322000F06DF98021014801F0B4
:1001E40029FCF7E70004004880B500AF4FF47A70AB
:1001F40000F060F94FF48041014801F01BFCF5E781
:100204000004004880B500AF4FF47A7000F052F952
:100214000121024801F00EFCF6E700BF000400488B
:1002240080B5ADF6082D00AF00F0DEF800F030F830
:1002340000F06AF83B1DC7F8043A124A4FF4007103
:10024400D7F8040A01F00CFDD7F8043A03F500735B
:10025400C7F8043A0C4A4FF40071D7F8040A01F0C5
:10026400FFFCD7F8043A03F50073C7F8043A074AC9
:100274004FF40071D7F8040A01F0F2FC01F094FD88
:10028400FEE700BFD5010008ED01000809020008DF
:1002940080B590B000AF07F118032822002118465A
:1002A40001F011FE3B1D00221A605A609A60DA6068
:1002B4001A610223BB6101237B621023BB6200230A
:1002C4003B6307F11803184600F016F90346002BA8
:1002D40001D000F04BF80F237B600023BB600023A8
:1002E400FB6000233B6100237B613B1D002118461A
:1002F40001F018F80346002B01D000F037F800BFD6
:100304004037BD4680BD000080B586B000AF3B1DC0
:1003140000221A605A609A60DA601A61114B5B69B4
:10032400104A43F4802353610E4B5B6903F480232A
:100334003B603B68002280210B4801F063FB44F2E0
:1003440081037B600123BB600023FB6000233B61CE
:100354003B1D1946044801F0CBF900BF1837BD46D0
:1003640080BD00BF001002400004004880B400AF0C
:1003740072B6FEE780B400AFFEE780B400AFFEE7DC
:1003840080B400AFFEE780B400AFFEE780B400AFF6
:10039400FEE780B400AF00BFBD465DF8047B704744
:1003A40080B483B000AF0F4B9B690E4A43F0010346
:1003B40093610C4B9B6903F001037B607B68094BE1
:1003C400DB69084A43F08053D361064BDB6903F0D1
:1003D40080533B603B6800BF0C37BD465DF8047B2F
:1003E400704700BF0010024080B500AF084B1B6887
:1003F400074A43F010031360032001F0E7FB0F20CA
:1004040000F008F8FFF7CCFF0023184680BD00BFBA
:100414000020024080B582B000AF7860124B1A68A9
:10042400124B1B7819464FF47A73B3FBF1F3B2FB0A
:10043400F3F3184601F0F1FB0346002B01D001232E
:100444000EE07B680F2B0AD8002279684FF0FF304A
:1004540001F0C7FB064A7B681360002300E0012318
:1004640018460837BD4680BD08000020040000205F
:100474000000002080B400AF064B1B781A46064BE0
:100484001B681344044A136000BFBD465DF8047B37
:10049400704700BF040000205C00002080B400AF5F
:1004A400034B1B681846BD465DF8047B704700BFCC
:1004B4005C00002080B584B000AF7860FFF7EEFFE9
:1004C400B8607B68FB60FB68B3F1FF3F05D0094B64
:1004D4001B781A46FB681344FB6000BFFFF7DEFF7E
:1004E4000246BB68D31AFA689A42F7D800BF10379D
:1004F400BD4680BD0400002080B5ADF5027D00AF8F
:100504003B1D18603B1D1B68002B02D1012300F02A
:1005140001BF3B1D1B681B6803F00103002B00F0A7
:100524006081AE4B5B6803F00C03042B0CD0AB4B27
:100534005B6803F00C03082B59D1A84B5B6803F4E8
:10054400C033B3F5803F52D14FF40033C7F8F431D0
:10055400D7F8F43193FAA3F3C7F8F031D7F8F031B0
:10056400B3FA83F3DBB25B09DBB243F00103DBB222
:10057400012B02D1994B1B6815E04FF40033C7F8E7
:10058400EC31D7F8EC3193FAA3F3C7F8E8314FF420
:100594000033C7F8E431D7F8E43193FAA3F3C7F88A
:1005A400E0318E4B5B6A4FF40032C7F8DC21D7F898
:1005B400DC2192FAA2F2C7F8D821D7F8D821B2FAEE
:1005C40082F2D2B242F02002D2B202F01F02012122
:1005D40001FA02F21340002B00F002813B1D1B685C
:1005E4005B68002B40F0FC80012300F093BE3B1DB0
:1005F4001B685B68B3F5803F06D1784B1B68774A6C
:1006040043F48033136030E03B1D1B685B68002BB0
:100614000CD1724B1B68714A23F4803313606F4B07
:100624001B686E4A23F4802313601EE03B1D1B6885
:100634005B68B3F5A02F0CD1684B1B68674A43F481
:1006440080231360654B1B68644A43F48033136052
:100654000BE0624B1B68614A23F4803313605F4BE9
:100664001B685E4A23F4802313603B1D1B685B6890
:10067400002B59D0FFF712FFC7F800020AE0FFF77A
:100684000DFF0246D7F80032D31A642B02D9032394
:1006940000F040BE4FF40033C7F8D431D7F8D4315A
:1006A40093FAA3F3C7F8D031D7F8D031B3FA83F370
:1006B400DBB25B09DBB243F00103DBB2012B02D1F5
:1006C400464B1B6815E04FF40033C7F8CC31D7F81C
:1006D400CC3193FAA3F3C7F8C8314FF40033C7F809
:1006E400C431D7F8C43193FAA3F3C7F8C0313B4BF4
:1006F4005B6A4FF40032C7F8BC21D7F8BC2192FAE8
:10070400A2F2C7F8B821D7F8B821B2FA82F2D2B26D
:1007140042F02002D2B202F01F02012101FA02F2D9
:100724001340002BABD05CE0FFF7B8FEC7F8000223
:100734000AE0FFF7B3FE0246D7F80032D31A642B5F
:1007440002D9032300F0E6BD4FF40033C7F8B431F7
:10075400D7F8B43193FAA3F3C7F8B031D7F8B0316E
:10076400B3FA83F3DBB25B09DBB243F00103DBB220
:10077400012B02D1194B1B6815E04FF40033C7F865
:10078400AC31D7F8AC3193FAA3F3C7F8A8314FF4DE
:100794000033C7F8A431D7F8A43193FAA3F3C7F808
:1007A400A0310E4B5B6A4FF40032C7F89C21D7F896
:1007B4009C2192FAA2F2C7F89821D7F89821B2FAAC
:1007C40082F2D2B242F02002D2B202F01F02012120
:1007D40001FA02F21340002BABD102E000100240F8
:1007E40000BF3B1D1B681B6803F00203002B00F0D5
:1007F4007081D04B5B6803F00C03002B0CD0CD4B05
:100804005B6803F00C03082B6DD1CA4B5B6803F4DF
:10081400C033B3F5004F66D10223C7F89431D7F83B
:10082400943193FAA3F3C7F89031D7F89031B3FA1F
:1008340083F3DBB25B09DBB243F00103DBB2012BD0
:1008440002D1BC4B1B6813E00223C7F88C31D7F8E4
:100854008C3193FAA3F3C7F888310223C7F88431A3
:10086400D7F8843193FAA3F3C7F88031B14B5B6AAC
:100874000222C7F87C21D7F87C2192FAA2F2C7F8A9
:100884007821D7F87821B2FA82F2D2B242F020026B
:10089400D2B202F01F02012101FA02F21340002B2E
:1008A40007D03B1D1B68DB68012B02D0012300F03D
:1008B40031BDA04B1B6823F0F8023B1D1B681B696C
:1008C400F821C7F87411D7F8741191FAA1F1C7F897
:1008D4007011D7F87011B1FA81F1C9B28B40954902
:1008E40013430B60F5E03B1D1B68DB68002B00F035
:1008F40085800123C7F86C31D7F86C3193FAA3F3E0
:10090400C7F86831D7F86831B3FA83F3DBB203F17F
:10091400845303F584139B001A4601231360FFF7E5
:10092400BDFDC7F800020AE0FFF7B8FD0246D7F89C
:100934000032D31A022B02D9032300F0EBBC0223AA
:10094400C7F86431D7F8643193FAA3F3C7F8603178
:10095400D7F86031B3FA83F3DBB25B09DBB243F05F
:100964000103DBB2012B02D1724B1B6813E002239B
:10097400C7F85C31D7F85C3193FAA3F3C7F8583160
:100984000223C7F85431D7F8543193FAA3F3C7F8C4
:100994005031684B5B6A0222C7F84C21D7F84C21CE
:1009A40092FAA2F2C7F84821D7F84821B2FA82F2A3
:1009B400D2B242F02002D2B202F01F02012101FAA7
:1009C40002F21340002BAFD05A4B1B6823F0F802FD
:1009D4003B1D1B681B69F821C7F84411D7F8441163
:1009E40091FAA1F1C7F84011D7F84011B1FA81F199
:1009F400C9B28B404F4913430B606AE00123C7F827
:100A04003C31D7F83C3193FAA3F3C7F83831D7F81F
:100A14003831B3FA83F3DBB203F1845303F584135F
:100A24009B001A4600231360FFF738FDC7F8000245
:100A34000AE0FFF733FD0246D7F80032D31A022B3F
:100A440002D9032300F066BC0223C7F83431D7F877
:100A5400343193FAA3F3C7F83031D7F83031B3FA0D
:100A640083F3DBB25B09DBB243F00103DBB2012B9E
:100A740002D1304B1B6813E00223C7F82C31D7F89E
:100A84002C3193FAA3F3C7F828310223C7F8243191
:100A9400D7F8243193FAA3F3C7F82031254B5B6AC6
:100AA4000222C7F81C21D7F81C2192FAA2F2C7F837
:100AB4001821D7F81821B2FA82F2D2B242F02002F9
:100AC400D2B202F01F02012101FA02F21340002BFC
:100AD400AFD13B1D1B681B6803F00803002B00F01B
:100AE400DA803B1D1B685B69002B69D00123C7F8C2
:100AF4001431D7F8143193FAA3F3C7F81031D7F8A7
:100B04001031B3FA83F3DBB21A460B4B13449B0048
:100B14001A4601231360FFF7C1FCC7F800020DE079
:100B2400FFF7BCFC0246D7F80032D31A022B05D9D2
:100B34000323EFE300100240208190100223C7F842
:100B44000C31D7F80C3193FAA3F207F584731A60C9
:100B540007F5827302221A6007F582731B6893FA01
:100B6400A3F207F580731A6007F1FC0302221A60EE
:100B740007F1FC031B6893FAA3F207F1F8031A6068
:100B8400A44B5A6A07F1F4030221196007F1F40334
:100B94001B6893FAA3F107F1F003196007F1F0035E
:100BA4001B68B3FA83F3DBB243F06003DBB203F0F8
:100BB4001F03012101FA03F31340002BB0D06AE0B4
:100BC40007F1EC0301221A6007F1EC031B6893FAA6
:100BD400A3F207F1E8031A6007F1E8031B68B3FA0C
:100BE40083F3DBB21A468C4B13449B001A46002352
:100BF4001360FFF753FCC7F8000209E0FFF74EFC4F
:100C04000246D7F80032D31A022B01D9032381E319
:100C140007F1E40302221A6007F1E4031B6893FA64
:100C2400A3F207F1E0031A6007F1DC0302221A6061
:100C340007F1DC031B6893FAA3F207F1D8031A60E7
:100C440007F1D40302221A6007F1D4031B6893FA54
:100C5400A3F207F1D0031A606E4B5A6A07F1CC0372
:100C64000221196007F1CC031B6893FAA3F107F181
:100C7400C803196007F1C8031B68B3FA83F3DBB236
:100C840043F06003DBB203F01F03012101FA03F315
:100C94001340002BB2D13B1D1B681B6803F00403F7
:100CA400002B00F05781002387F80732594BDB698A
:100CB40003F08053002B12D1564BDB69554A43F0A5
:100CC4008053D361534BDB6903F0805207F10C036B
:100CD4001A6007F10C031B68012387F807324F4B96
:100CE4001B6803F48073002B1AD14C4B1B684B4ACE
:100CF40043F480731360FFF7D1FBC7F8000209E0E7
:100D0400FFF7CCFB0246D7F80032D31A642B01D983
:100D14000323FFE2414B1B6803F48073002BEFD0E5
:100D24003B1D1B689B68012B06D13A4B1B6A394A51
:100D340043F0010313622FE03B1D1B689B68002BEB
:100D44000CD1344B1B6A334A23F001031362314B39
:100D54001B6A304A23F0040313621DE03B1D1B6829
:100D64009B68052B0CD12B4B1B6A2A4A43F00403C6
:100D74001362284B1B6A274A43F0010313620BE0FA
:100D8400244B1B6A234A23F001031362214B1B6A81
:100D9400204A23F0040313623B1D1B689B68002B4D
:100DA4006AD0FFF77BFBC7F800020BE0FFF776FB86
:100DB4000246D7F80032D31A41F28832934201D95D
:100DC4000323A7E207F1C40302221A6007F1C40354
:100DD4001B6893FAA3F207F1C0031A6007F1BC037E
:100DE40002221A6007F1BC031B6893FAA3F207F10D
:100DF400B8031A6007F1B8031B68B3FA83F3DBB2D4
:100E04005B09DBB243F00203DBB2022B08D1014BD6
:100E14001B6A13E000100240208190100070004013
:100E240007F1B40302221A6007F1B4031B6893FAB2
:100E3400A3F207F1B0031A60C04B5B6A07F1AC027E
:100E44000221116007F1AC02126892FAA2F107F1D3
:100E5400A802116007F1A8021268B2FA82F2D2B2B3
:100E640042F04002D2B202F01F02012101FA02F262
:100E74001340002B9AD063E0FFF710FBC7F8000281
:100E84000BE0FFF70BFB0246D7F80032D31A41F20E
:100E94008832934201D903233CE207F1A4030222DE
:100EA4001A6007F1A4031B6893FAA3F207F1A003E5
:100EB4001A6007F19C0302221A6007F19C031B6865
:100EC40093FAA3F207F198031A6007F198031B68D9
:100ED400B3FA83F3DBB25B09DBB243F00203DBB2A8
:100EE400022B02D1954B1B6A0DE007F194030222F9
:100EF4001A6007F194031B6893FAA3F207F19003B5
:100F04001A608E4B5B6A07F18C020221116007F1B3
:100F14008C02126892FAA2F107F18802116007F1BB
:100F240088021268B2FA82F2D2B242F04002D2B21D
:100F340002F01F02012101FA02F21340002BA0D19A
:100F440097F80732012B05D17C4BDB697B4A23F0F0
:100F54008053D3613B1D1B689B69002B00F0D98132
:100F6400764B5B6803F00C03082B00F0A6813B1D55
:100F74001B689B69022B40F01E8107F184034FF02C
:100F840080721A6007F184031B6893FAA3F207F1D5
:100F940080031A6007F180031B68B3FA83F3DBB2A2
:100FA40003F1845303F584139B001A460023136052
:100FB400FFF774FAC7F8000209E0FFF76FFA024678
:100FC400D7F80032D31A022B01D90323A2E107F187
:100FD4007C034FF000721A6007F17C031B6893FADC
:100FE400A3F207F178031A6007F178031B68B3FAD8
:100FF40083F3DBB25B09DBB243F00103DBB2012B09
:1010040002D14E4B1B681BE007F174034FF00072D2
:101014001A6007F174031B6893FAA3F207F17003D3
:101024001A6007F16C034FF000721A6007F16C0349
:101034001B6893FAA3F207F168031A603F4B5B6ADB
:1010440007F164024FF00071116007F16402126845
:1010540092FAA2F107F16002116007F160021268CE
:10106400B2FA82F2D2B242F02002D2B202F01F02ED
:10107400012101FA02F21340002B9ED12F4BDB6AAF
:1010840023F00F023B1D1B685B6A2C491343CB62A0
:101094002A4B5B6823F476123B1D1B68196A3B1DBF
:1010A4001B68DB690B43254913434B6007F15C0361
:1010B4004FF080721A6007F15C031B6893FAA3F285
:1010C40007F158031A6007F158031B68B3FA83F356
:1010D400DBB203F1845303F584139B001A46012306
:1010E4001360FFF7DBF9C7F8000209E0FFF7D6F950
:1010F4000246D7F80032D31A022B01D9032309E19F
:1011040007F154034FF000721A6007F154031B688F
:1011140093FAA3F207F150031A6007F150031B6816
:10112400B3FA83F3DBB25B09DBB243F00103DBB256
:10113400012B05D1014B1B681EE000BF00100240CB
:1011440007F14C034FF000721A6007F14C031B685F
:1011540093FAA3F207F148031A6007F144034FF02E
:1011640000721A6007F144031B6893FAA3F207F1B3
:1011740040031A606A4B5B6A07F13C024FF000714E
:10118400116007F13C02126892FAA2F107F13802E9
:10119400116007F138021268B2FA82F2D2B242F058
:1011A4002002D2B202F01F02012101FA02F213401E
:1011B400002B9BD0ADE007F134034FF080721A602E
:1011C40007F134031B6893FAA3F207F130031A60A2
:1011D40007F130031B68B3FA83F3DBB203F18453E2
:1011E40003F584139B001A4600231360FFF756F996
:1011F400C7F8000209E0FFF751F90246D7F80032B8
:10120400D31A022B01D9032384E007F12C034FF0F6
:1012140000721A6007F12C031B6893FAA3F207F11A
:1012240028031A6007F128031B68B3FA83F3DBB2BF
:101234005B09DBB243F00103DBB2012B02D1384B73
:101244001B681BE007F124034FF000721A6007F1DA
:1012540024031B6893FAA3F207F120031A6007F131
:101264001C034FF000721A6007F11C031B6893FA09
:10127400A3F207F118031A60294B5B6A07F1140201
:101284004FF00071116007F11402126892FAA2F192
:1012940007F11002116007F110021268B2FA82F22B
:1012A400D2B242F02002D2B202F01F02012101FAAE
:1012B40002F21340002B9ED12BE03B1D1B689B695F
:1012C400012B01D1012325E0154B5B68C7F8FC31E4
:1012D400134BDB6AC7F8F831D7F8FC3103F4C0329A
:1012E4003B1D1B68DB699A4211D1D7F8FC3103F42A
:1012F40070123B1D1B681B6A9A4208D1D7F8F8315B
:1013040003F00F023B1D1B685B6A9A4201D0012364
:1013140000E00023184607F50277BD4680BD00BFF4
:101324000010024080B59EB000AF786039600023A1
:101334007B677B68002B01D1012362E1904B1B6822
:1013440003F007033A689A4210D98D4B1B6823F0C7
:1013540007028B493B6813430B60894B1B6803F0FE
:1013640007033A689A4201D001234AE17B681B686B
:1013740003F00203002B08D0824B5B6823F0F002D9
:101384007B689B687F4913434B607B681B6803F051
:101394000103002B00F0DC807B685B68012B3CD1EF
:1013A4004FF400333B673B6F93FAA3F3FB66FB6E8A
:1013B400B3FA83F3DBB25B09DBB243F00103DBB2C4
:1013C400012B02D16F4B1B680FE04FF40033BB6657
:1013D400BB6E93FAA3F37B664FF400333B663B6E1C
:1013E40093FAA3F3FB65674B5B6A4FF40032BA656B
:1013F400BA6D92FAA2F27A657A6DB2FA82F2D2B238
:1014040042F02002D2B202F01F02012101FA02F2DC
:101414001340002B7BD10123F3E07B685B68022B34
:101424003CD14FF000733B653B6D93FAA3F3FB642F
:10143400FB6CB3FA83F3DBB25B09DBB243F0010369
:10144400DBB2012B02D14F4B1B680FE04FF000734E
:10145400BB64BB6C93FAA3F37B644FF000733B64EF
:101464003B6C93FAA3F3FB63464B5B6A4FF0007249
:10147400BA63BA6B92FAA2F27A637A6BB2FA82F224
:10148400D2B242F02002D2B202F01F02012101FACC
:1014940002F21340002B3AD10123B2E002233B6352
:1014A4003B6B93FAA3F3FB62FB6AB3FA83F3DBB2FD
:1014B4005B09DBB243F00103DBB2012B02D1314BF8
:1014C4001B680DE00223BB62BB6A93FAA3F37B6241
:1014D40002233B623B6A93FAA3F3FB61294B5B6AE9
:1014E4000222BA61BA6992FAA2F27A617A69B2FA0C
:1014F40082F2D2B242F02002D2B202F01F020121E3
:1015040001FA02F21340002B01D1012379E01D4BB3
:101514005B6823F003027B685B681A4913434B60E2
:10152400FEF7BCFF78670AE0FEF7B8FF02467B6F60
:10153400D31A41F28832934201D9032361E0114B5B
:101544005B6803F00C027B685B689B009A42EBD1FA
:101554000B4B1B6803F007033A689A4214D2084BFA
:101564001B6823F0070206493B6813430B60044BD6
:101574001B6803F007033A689A4205D0012340E050
:1015840000200240001002407B681B6803F0040343
:10159400002B08D01D4B5B6823F4E0627B68DB689A
:1015A4001A4913434B607B681B6803F00803002B44
:1015B40009D0164B5B6823F460527B681B69DB001F
:1015C400124913434B6000F029F801460F4B5B6846
:1015D40003F0F003F0223A613A6992FAA2F2FA6057
:1015E400FA68B2FA82F2D2B2D340094AD35C21FA41
:1015F40003F3084A1360084B1B681846FEF70AFFFA
:10160400002318467837BD4680BD00BF0010024055
:10161400141F0008080000200000002080B48BB0D4
:1016240000AF0023FB610023BB6100237B62002326
:101634007B6100233B622A4B5B68FB61FB6903F01F
:101644000C03042B02D0082B03D03FE0254B3B6254
:101654003FE0FB6903F470134FF47012BA60BA6888
:1016640092FAA2F27A607A68B2FA82F2D2B2D340E3
:101674001D4AD35C7B611A4BDB6A03F00F030F2214
:101684003A613A6992FAA2F2FA60FA68B2FA82F21C
:10169400D2B2D340154AD35CBB61FB6903F48033F7
:1016A400002B08D00F4ABB69B2FBF3F27B6902FB43
:1016B40003F37B6207E00B4ABB69B2FBF3F27B697D
:1016C40002FB03F37B627B6A3B6202E0054B3B62F5
:1016D40000BF3B6A18462C37BD465DF8047B704753
:1016E4000010024000127A00F41E0008041F0008D3
:1016F40080B487B000AF7860396000237B6160E11B
:101704003B681A6801217B6901FA03F31340FB600B
:10171400FB68002B00F052813B685B68012B0BD007
:101724003B685B68022B07D03B685B68112B03D0D6
:101734003B685B68122B30D17B689B683B617B699B
:101744005B00032202FA03F3DB433A6913403B6173
:101754003B68DA687B695B0002FA03F33A69134376
:101764003B617B683A699A607B685B683B610122F4
:101774007B6902FA03F3DB433A6913403B613B683C
:101784005B681B0903F001027B6902FA03F33A69FF
:1017940013433B617B683A695A607B68DB683B6151
:1017A4007B695B00032202FA03F3DB433A691340CB
:1017B4003B613B689A687B695B0002FA03F33A6910
:1017C40013433B617B683A69DA603B685B68022BD0
:1017D40003D03B685B68122B23D17B69DA087B68F2
:1017E400083253F822303B617B6903F007039B0006
:1017F4000F2202FA03F3DB433A6913403B613B686F
:101804001A697B6903F007039B0002FA03F33A6940
:1018140013433B617B69DA087B680832396943F812
:1018240022107B681B683B617B695B00032202FA20
:1018340003F3DB433A6913403B613B685B6803F0A5
:1018440003027B695B0002FA03F33A6913433B61C9
:101854007B683A691A603B685B6803F08053002B2D
:1018640000F0AC805E4B9B695D4A43F001039361D9
:101874005B4B9B6903F00103BB60BB68594A7B69FE
:101884009B08023352F823303B617B6903F0030366
:101894009B000F2202FA03F3DB433A6913403B61D6
:1018A4007B68B3F1904F25D07B684F4A93421FD099
:1018B4007B684E4A934219D07B684D4A934213D0B9
:1018C4007B684C4A93420DD07B684B4A934207D0C5
:1018D4007B684A4A934201D106230CE007230AE0BD
:1018E400052308E0042306E0032304E0022302E0C6
:1018F400012300E000237A6902F00302920093407E
:101904003A6913433B6137497B699B0802333A695F
:1019140041F823203A4B1B683B61FB68DB433A697F
:1019240013403B613B685B6803F48033002B03D0B6
:101934003A69FB6813433B61314A3B691360304B9E
:101944005B683B61FB68DB433A6913403B613B687E
:101954005B6803F40033002B03D03A69FB6813433C
:101964003B61274A3B695360254B9B683B61FB689D
:10197400DB433A6913403B613B685B6803F48013C3
:10198400002B03D03A69FB6813433B611C4A3B6953
:1019940093601B4BDB683B61FB68DB433A69134094
:1019A4003B613B685B6803F40013002B03D03A6986
:1019B400FB6813433B61124A3B69D3607B69013383
:1019C4007B613B681A687B6922FA03F3002B7FF47E
:1019D40097AE00BF1C37BD465DF8047B704700BF5F
:1019E40000100240000001400004004800080048C4
:1019F400000C00480010004800140048001800487B
:101A04000004014080B483B000AF78600B467B8053
:101A140013467B707B78002B03D07A887B689A61AD
:101A240002E07A887B689A6200BF0C37BD465DF895
:101A3400047B704780B485B000AF78600B467B8030
:101A44007B685B69FB607A88FB6813401A04FB6857
:101A5400D9437B880B401A437B689A6100BF1437D3
:101A6400BD465DF8047B704780B485B000AF7860F4
:101A74007B6803F00703FB600C4BDB68BB60BA6850
:101A84004FF6FF031340BB60FB681A02BB681343A5
:101A940043F0BF6343F40033BB60044ABB68D360C4
:101AA40000BF1437BD465DF8047B704700ED00E0CD
:101AB40080B400AF044BDB681B0A03F0070318462D
:101AC400BD465DF8047B704700ED00E080B483B050
:101AD40000AF03463960FB7197F90730002B0ADB2E
:101AE4003B68DAB20C4997F907301201D2B20B44C1
:101AF40083F800230AE03B68DAB20849FB7903F073
:101B04000F03043B1201D2B20B441A7600BF0C3708
:101B1400BD465DF8047B704700E100E000ED00E0A5
:101B240080B489B000AFF860B9607A60FB6803F0F4
:101B34000703FB61FB69C3F10703042B28BF0423DC
:101B4400BB61FB690433062B02D9FB69033B00E04C
:101B540000237B614FF0FF32BB6902FA03F3DA43DF
:101B6400BB681A407B699A404FF0FF317B6901FAE8
:101B740003F3D9437B680B40134318462437BD460F
:101B84005DF8047B7047000080B582B000AF7860D8
:101B94007B68013BB3F1807F01D301230FE00A4A44
:101BA4007B68013B53600F214FF0FF30FFF78EFF3E
:101BB400054B00229A60044B07221A600023184642
:101BC4000837BD4680BD00BF10E000E080B582B09C
:101BD40000AF78607868FFF747FF00BF0837BD465D
:101BE40080BD80B586B000AF0346B9607A60FB73F0
:101BF40000237B61FFF75CFF78617A68B9687869D4
:101C0400FFF78EFF024697F90F3011461846FFF78B
:101C14005DFF00BF1837BD4680BD80B582B000AF00
:101C240078607868FFF7B0FF034618460837BD466A
:101C340080BD000080B400AF064BD3F88830054A5D
:101C440043F47003C2F8883000BFBD465DF8047BDE
:101C5400704700BF00ED00E080B400AFFEE7000075
:101C640080B596B000AFF860B9607A6000237B63FA
:101C74000123BB630223FB6303233B640C237B64C8
:101C84001F4BBB647B68FB644FF080733B6504238C
:101C94007B610523BB610623FB6107233B620823A9
:101CA4007B620923BB620A23FB620B233B63FA6852
:101CB400BB681344FB60FB687B657B6D203B7B65E5
:101CC40007F1340320221946786D00F0F1F87B6D9A
:101CD400203B7B6507F1140320221946786D00F040
:101CE400E7F8084B1B687A6D074941F82320054B38
:101CF4001B680133034A136000BF5837BD4680BDDB
:101D04005D1C0008540000202C00002072B6064818
:101D140000680068B0E8F00F80F3098862B66FF0DD
:101D24000200004700BF00006000002072B6174B9D
:101D34001B68174A1360174B1B680133154A13605D
:101D4400144B1B68144A1268B3FBF2F102FB01F254
:101D54009B1A104A13600F4B1B689B000F4A1344D5
:101D64000A4A1360EFF309800D49096820E9F00F6E
:101D740008600C4800680068B0E8F00F80F3098838
:101D840062B66FF00200004700BF00BF6000002091
:101D94006400002058000020540000202C00002083
:101DA400640000206000002080B500AF02220F21F3
:101DB4006FF00100FFF715FF044B1B689B00044AFA
:101DC4001344044A136000DFFEE700BF58000020FC
:101DD4002C0000206000002080B500AFFEF74AFB15
:101DE400FEF75CFB0246094B1B68D31A042B0BD984
:101DF400FEF754FB0246054B1A60054B5B68044A28
:101E040043F08053536000E000BF80BD28000020F1
:101E140000ED00E0DFF834D00D480E490E4A0023EF
:101E240002E0D458C4500433C4188C42F9D30B4A8A
:101E34000B4C002301E013600432A242FBD3FFF7F2
:101E4400F9FE00F011F8FEF7EBF9FEE700000120BF
:101E5400000000200C0000202C1F00080C000020B3
:101E640068000020FEE7000070B50D4E0D4CA41B69
:101E7400A4100025A54209D10B4E0C4C00F02CF8FF
:101E8400A41BA4100025A54205D170BD56F8253029
:101E940098470135EEE756F8253098470135F2E7C3
:101EA400241F0008241F0008241F0008281F0008FE
:101EB40010B5431E0A44914200D110BD11F8014BE4
:101EC40003F8014FF7E702440346934200D17047F9
:101ED40003F8011BF9E70000F8B500BFF8BC08BC23
:101EE4009E467047F8B500BFF8BC08BC9E467047D4
:101EF40002030405060708090A0B0C0D0E0F101047
:101F04000102030405060708090A0B0C0D0E0F1045
:101F14000000000000000000010203040607080995
:041F2400B9010008F7
:041F28009501000817
:0C1F2C00100000000100000000127A000C
:0400000508001E19B8
:00000001FF
