:020000040800F2
:1000000000000120253200089D040008A304000818
:10001000A9040008AF040008B504000800000000AF
:100020000000000000000000000000000929000896
:10003000BB0400080000000029290008C9290008A5
:1000400075320008753200087532000875320008F4
:1000500075320008753200087532000875320008E4
:1000600075320008753200087532000875320008D4
:1000700075320008C904000875320008753200089E
:1000800075320008753200087532000875320008B4
:1000900075320008753200087532000875320008A4
:1000A0007532000875320008753200087532000894
:1000B0007532000875320008753200087532000884
:1000C0007532000875320008753200087532000874
:1000D0007532000875320008753200087532000864
:1000E0007532000875320008753200087532000854
:1000F0007532000875320008753200087532000844
:100100007532000800000000000000007532000891
:100110007532000875320008753200087532000823
:100120007532000875320008753200087532000813
:100130007532000875320008000000000000000061
:1001400075320008753200087532000800000000A2
:10015000000000000000000000000000000000009F
:1001600075320008753200087532000875320008D3
:1001700075320008753200087532000875320008C3
:100180007532000875320008000000000000000011
:0401900075320008BC
:1001940010B5054C237833B9044B13B10448AFF3BD
:1001A40000800123237010BD100000200000000017
:1001B400F832000808B5034B1BB103490348AFF3F9
:1001C400008008BD0000000014000020F832000880
:1001D400034613F8012B002AFBD1181A0138704783
:1001E40080B500AF8021034801F07AFF322002F08D
:1001F400ABFAF7E70004004880B586B000AF4FF4CF
:1002040080410F4801F06CFF02F088FA02463B4639
:100214001146184603F065F83B461846FFF7D8FF29
:100224000346FB8272B6FA8A39460123054802F076
:1002340027FC62B64FF47A7002F086FADFE700BF5B
:1002440000040048D402002080B500AF0121044816
:1002540001F046FF4FF4FA7002F076FAF6E700BFB9
:100264000004004880B500AF00F0C8F900F02AF897
:1002740000F0C8F800F078F800F0A6F800230B4A64
:100284004FF400710A4802F095F90123094A4FF42A
:100294000071094802F08EF90223084A4FF40071F4
:1002A400074802F087F902F057FBFEE7E501000872
:1002B40010330008FD0100081C3300084D0200083B
:1002C4002433000880B5A6B000AF07F170032822DC
:1002D4000021184602F0FDFF07F15C0300221A60BA
:1002E4005A609A60DA601A613B1D58220021184650
:1002F40002F0EFFF02233B670123FB671023C7F8DB
:1003040080300023C7F8883007F17003184600F0E6
:10031400DBF90346002B01D000F0BAF80F23FB658C
:1003240000233B6600237B660023BB660023FB6639
:1003340007F15C030021184601F0DCF80346002BAA
:1003440001D000F0A5F804237B6000237B613B1DF2
:10035400184601F005FB0346002B01D000F098F885
:1003640000BF9837BD4680BD80B500AF144B154A19
:100374001A60134B4FF416525A60114B00229A60C4
:100384000F4B0022DA600E4B00221A610C4B0C2238
:100394005A610B4B00229A61094B0022DA61084B27
:1003A40000221A62064B00225A62054802F01AFB28
:1003B4000346002B01D000F06BF800BF80BD00BFE6
:1003C400D40200200048004080B582B000AF0C4B3E
:1003D4005B690B4A43F001035361094B5B6903F00A
:1003E40001037B607B68002200210D2002F093F85A
:1003F4000D2002F0ACF800BF0837BD4680BD00BF39
:100404000010024080B588B000AF07F10C03002251
:100414001A605A609A60DA601A611B4B5B691A4A67
:1004240043F480235361184B5B6903F48023BB605E
:10043400BB68154B5B69144A43F480135361124B38
:100444005B6903F480137B607B68002281210F4881
:1004540001F02EFE01224FF480410C4801F028FEE9
:1004640044F28103FB6001233B6100237B61002391
:10047400BB6107F10C031946044801F08FFC00BF6F
:100484002037BD4680BD00BF001002400004004874
:1004940080B400AF72B6FEE780B400AFFEE780B46C
:1004A40000AFFEE780B400AFFEE780B400AFFEE724
:1004B40080B400AFFEE780B400AF00BFBD465DF876
:1004C400047B704780B500AF024801F06AFE00BFAC
:1004D40080BD00BF9002002080B483B000AF0F4BFA
:1004E4009B690E4A43F0010393610C4B9B6903F033
:1004F40001037B607B68094BDB69084A43F0805346
:10050400D361064BDB6903F080533B603B6800BF5B
:100514000C37BD465DF8047B704700BF00100240F5
:1005240080B58AB000AF786007F1140300221A6026
:100534005A609A60DA601A617B681B682A4A93429F
:100544004ED12A4BDB69294A43F48023D361274BDC
:10055400DB6903F480233B613B69244B5B69234AD9
:1005640043F480135361214B5B6903F48013FB60F4
:10057400FB684FF440737B610223BB610023FB6182
:1005840003233B6207237B6207F1140319461848CF
:1005940001F004FC174B184A1A60164B00225A60EB
:1005A400144B00229A60134B8022DA60114B002214
:1005B4001A61104B00225A610E4B20229A610D4B96
:1005C4000022DA610B4801F0A5FD0346002B01D09F
:1005D400FFF75EFF7B68074A1A67064A7B68536227
:1005E40000BF2837BD4680BD0048004000100240CF
:1005F400000C0048900200203000024080B500AF9B
:10060400084B1B68074A43F010031360032001F0F2
:1006140077FF0F2000F008F8FFF75EFF002318466D
:1006240080BD00BF0020024080B582B000AF78607A
:10063400124B1A68124B1B7819464FF47A73B3FBAA
:10064400F1F3B2FBF3F3184601F08FFF0346002BDE
:1006540001D001230EE07B680F2B0AD800227968B1
:100664004FF0FF3001F057FF064A7B681360002308
:1006740000E0012318460837BD4680BD080000206D
:10068400040000200000002080B400AF064B1B785B
:100694001A46064B1B681344044A136000BFBD4648
:1006A4005DF8047B704700BF04000020580300205D
:1006B40080B400AF034B1B681846BD465DF8047B4D
:1006C400704700BF5803002080B5ADF5027D00AF30
:1006D4003B1D18603B1D1B68002B02D1012300F059
:1006E40001BF3B1D1B681B6803F00103002B00F0D6
:1006F4006081AE4B5B6803F00C03042B0CD0AB4B56
:100704005B6803F00C03082B59D1A84B5B6803F416
:10071400C033B3F5803F52D14FF40033C7F8F431FE
:10072400D7F8F43193FAA3F3C7F8F031D7F8F031DE
:10073400B3FA83F3DBB25B09DBB243F00103DBB250
:10074400012B02D1994B1B6815E04FF40033C7F815
:10075400EC31D7F8EC3193FAA3F3C7F8E8314FF44E
:100764000033C7F8E431D7F8E43193FAA3F3C7F8B8
:10077400E0318E4B5B6A4FF40032C7F8DC21D7F8C6
:10078400DC2192FAA2F2C7F8D821D7F8D821B2FA1C
:1007940082F2D2B242F02002D2B202F01F02012150
:1007A40001FA02F21340002B00F002813B1D1B688A
:1007B4005B68002B40F0FC80012300F093BE3B1DDE
:1007C4001B685B68B3F5803F06D1784B1B68774A9A
:1007D40043F48033136030E03B1D1B685B68002BDF
:1007E4000CD1724B1B68714A23F4803313606F4B36
:1007F4001B686E4A23F4802313601EE03B1D1B68B4
:100804005B68B3F5A02F0CD1684B1B68674A43F4AF
:1008140080231360654B1B68644A43F48033136080
:100824000BE0624B1B68614A23F4803313605F4B17
:100834001B685E4A23F4802313603B1D1B685B68BE
:10084400002B59D0FFF734FFC7F800020AE0FFF786
:100854002FFF0246D7F80032D31A642B02D90323A0
:1008640000F040BE4FF40033C7F8D431D7F8D43188
:1008740093FAA3F3C7F8D031D7F8D031B3FA83F39E
:10088400DBB25B09DBB243F00103DBB2012B02D123
:10089400464B1B6815E04FF40033C7F8CC31D7F84A
:1008A400CC3193FAA3F3C7F8C8314FF40033C7F837
:1008B400C431D7F8C43193FAA3F3C7F8C0313B4B22
:1008C4005B6A4FF40032C7F8BC21D7F8BC2192FA16
:1008D400A2F2C7F8B821D7F8B821B2FA82F2D2B29C
:1008E40042F02002D2B202F01F02012101FA02F208
:1008F4001340002BABD05CE0FFF7DAFEC7F8000230
:100904000AE0FFF7D5FE0246D7F80032D31A642B6B
:1009140002D9032300F0E6BD4FF40033C7F8B43125
:10092400D7F8B43193FAA3F3C7F8B031D7F8B0319C
:10093400B3FA83F3DBB25B09DBB243F00103DBB24E
:10094400012B02D1194B1B6815E04FF40033C7F893
:10095400AC31D7F8AC3193FAA3F3C7F8A8314FF40C
:100964000033C7F8A431D7F8A43193FAA3F3C7F836
:10097400A0310E4B5B6A4FF40032C7F89C21D7F8C4
:100984009C2192FAA2F2C7F89821D7F89821B2FADA
:1009940082F2D2B242F02002D2B202F01F0201214E
:1009A40001FA02F21340002BABD102E00010024026
:1009B40000BF3B1D1B681B6803F00203002B00F003
:1009C4007081D04B5B6803F00C03002B0CD0CD4B33
:1009D4005B6803F00C03082B6DD1CA4B5B6803F40E
:1009E400C033B3F5004F66D10223C7F89431D7F86A
:1009F400943193FAA3F3C7F89031D7F89031B3FA4E
:100A040083F3DBB25B09DBB243F00103DBB2012BFE
:100A140002D1BC4B1B6813E00223C7F88C31D7F812
:100A24008C3193FAA3F3C7F888310223C7F88431D1
:100A3400D7F8843193FAA3F3C7F88031B14B5B6ADA
:100A44000222C7F87C21D7F87C2192FAA2F2C7F8D7
:100A54007821D7F87821B2FA82F2D2B242F0200299
:100A6400D2B202F01F02012101FA02F21340002B5C
:100A740007D03B1D1B68DB68012B02D0012300F06B
:100A840031BDA04B1B6823F0F8023B1D1B681B699A
:100A9400F821C7F87411D7F8741191FAA1F1C7F8C5
:100AA4007011D7F87011B1FA81F1C9B28B40954930
:100AB40013430B60F5E03B1D1B68DB68002B00F063
:100AC40085800123C7F86C31D7F86C3193FAA3F30E
:100AD400C7F86831D7F86831B3FA83F3DBB203F1AE
:100AE400845303F584139B001A4601231360FFF714
:100AF400DFFDC7F800020AE0FFF7DAFD0246D7F887
:100B04000032D31A022B02D9032300F0EBBC0223D8
:100B1400C7F86431D7F8643193FAA3F3C7F86031A6
:100B2400D7F86031B3FA83F3DBB25B09DBB243F08D
:100B34000103DBB2012B02D1724B1B6813E00223C9
:100B4400C7F85C31D7F85C3193FAA3F3C7F858318E
:100B54000223C7F85431D7F8543193FAA3F3C7F8F2
:100B64005031684B5B6A0222C7F84C21D7F84C21FC
:100B740092FAA2F2C7F84821D7F84821B2FA82F2D1
:100B8400D2B242F02002D2B202F01F02012101FAD5
:100B940002F21340002BAFD05A4B1B6823F0F8022B
:100BA4003B1D1B681B69F821C7F84411D7F8441191
:100BB40091FAA1F1C7F84011D7F84011B1FA81F1C7
:100BC400C9B28B404F4913430B606AE00123C7F855
:100BD4003C31D7F83C3193FAA3F3C7F83831D7F84E
:100BE4003831B3FA83F3DBB203F1845303F584138E
:100BF4009B001A4600231360FFF75AFDC7F8000252
:100C04000AE0FFF755FD0246D7F80032D31A022B4B
:100C140002D9032300F066BC0223C7F83431D7F8A5
:100C2400343193FAA3F3C7F83031D7F83031B3FA3B
:100C340083F3DBB25B09DBB243F00103DBB2012BCC
:100C440002D1304B1B6813E00223C7F82C31D7F8CC
:100C54002C3193FAA3F3C7F828310223C7F82431BF
:100C6400D7F8243193FAA3F3C7F82031254B5B6AF4
:100C74000222C7F81C21D7F81C2192FAA2F2C7F865
:100C84001821D7F81821B2FA82F2D2B242F0200227
:100C9400D2B202F01F02012101FA02F21340002B2A
:100CA400AFD13B1D1B681B6803F00803002B00F049
:100CB400DA803B1D1B685B69002B69D00123C7F8F0
:100CC4001431D7F8143193FAA3F3C7F81031D7F8D5
:100CD4001031B3FA83F3DBB21A460B4B13449B0077
:100CE4001A4601231360FFF7E3FCC7F800020DE086
:100CF400FFF7DEFC0246D7F80032D31A022B05D9DF
:100D04000323EFE300100240208190100223C7F870
:100D14000C31D7F80C3193FAA3F207F584731A60F7
:100D240007F5827302221A6007F582731B6893FA2F
:100D3400A3F207F580731A6007F1FC0302221A601C
:100D440007F1FC031B6893FAA3F207F1F8031A6096
:100D5400A44B5A6A07F1F4030221196007F1F40362
:100D64001B6893FAA3F107F1F003196007F1F0038C
:100D74001B68B3FA83F3DBB243F06003DBB203F026
:100D84001F03012101FA03F31340002BB0D06AE0E2
:100D940007F1EC0301221A6007F1EC031B6893FAD4
:100DA400A3F207F1E8031A6007F1E8031B68B3FA3A
:100DB40083F3DBB21A468C4B13449B001A46002380
:100DC4001360FFF775FCC7F8000209E0FFF770FC39
:100DD4000246D7F80032D31A022B01D9032381E348
:100DE40007F1E40302221A6007F1E4031B6893FA93
:100DF400A3F207F1E0031A6007F1DC0302221A6090
:100E040007F1DC031B6893FAA3F207F1D8031A6015
:100E140007F1D40302221A6007F1D4031B6893FA82
:100E2400A3F207F1D0031A606E4B5A6A07F1CC03A0
:100E34000221196007F1CC031B6893FAA3F107F1AF
:100E4400C803196007F1C8031B68B3FA83F3DBB264
:100E540043F06003DBB203F01F03012101FA03F343
:100E64001340002BB2D13B1D1B681B6803F0040325
:100E7400002B00F05781002387F80732594BDB69B8
:100E840003F08053002B12D1564BDB69554A43F0D3
:100E94008053D361534BDB6903F0805207F10C0399
:100EA4001A6007F10C031B68012387F807324F4BC4
:100EB4001B6803F48073002B1AD14C4B1B684B4AFC
:100EC40043F480731360FFF7F3FBC7F8000209E0F3
:100ED400FFF7EEFB0246D7F80032D31A642B01D990
:100EE4000323FFE2414B1B6803F48073002BEFD014
:100EF4003B1D1B689B68012B06D13A4B1B6A394A80
:100F040043F0010313622FE03B1D1B689B68002B19
:100F14000CD1344B1B6A334A23F001031362314B67
:100F24001B6A304A23F0040313621DE03B1D1B6857
:100F34009B68052B0CD12B4B1B6A2A4A43F00403F4
:100F44001362284B1B6A274A43F0010313620BE028
:100F5400244B1B6A234A23F001031362214B1B6AAF
:100F6400204A23F0040313623B1D1B689B68002B7B
:100F74006AD0FFF79DFBC7F800020BE0FFF798FB70
:100F84000246D7F80032D31A41F28832934201D98B
:100F94000323A7E207F1C40302221A6007F1C40382
:100FA4001B6893FAA3F207F1C0031A6007F1BC03AC
:100FB40002221A6007F1BC031B6893FAA3F207F13B
:100FC400B8031A6007F1B8031B68B3FA83F3DBB202
:100FD4005B09DBB243F00203DBB2022B08D1014B05
:100FE4001B6A13E000100240208190100070004042
:100FF40007F1B40302221A6007F1B4031B6893FAE1
:10100400A3F207F1B0031A60C04B5B6A07F1AC02AC
:101014000221116007F1AC02126892FAA2F107F101
:10102400A802116007F1A8021268B2FA82F2D2B2E1
:1010340042F04002D2B202F01F02012101FA02F290
:101044001340002B9AD063E0FFF732FBC7F800028D
:101054000BE0FFF72DFB0246D7F80032D31A41F21A
:101064008832934201D903233CE207F1A40302220C
:101074001A6007F1A4031B6893FAA3F207F1A00313
:101084001A6007F19C0302221A6007F19C031B6893
:1010940093FAA3F207F198031A6007F198031B6807
:1010A400B3FA83F3DBB25B09DBB243F00203DBB2D6
:1010B400022B02D1954B1B6A0DE007F19403022227
:1010C4001A6007F194031B6893FAA3F207F19003E3
:1010D4001A608E4B5B6A07F18C020221116007F1E2
:1010E4008C02126892FAA2F107F18802116007F1EA
:1010F40088021268B2FA82F2D2B242F04002D2B24C
:1011040002F01F02012101FA02F21340002BA0D1C8
:1011140097F80732012B05D17C4BDB697B4A23F01E
:101124008053D3613B1D1B689B69002B00F0D98160
:10113400764B5B6803F00C03082B00F0A6813B1D83
:101144001B689B69022B40F01E8107F184034FF05A
:1011540080721A6007F184031B6893FAA3F207F103
:1011640080031A6007F180031B68B3FA83F3DBB2D0
:1011740003F1845303F584139B001A460023136080
:10118400FFF796FAC7F8000209E0FFF791FA024662
:10119400D7F80032D31A022B01D90323A2E107F1B5
:1011A4007C034FF000721A6007F17C031B6893FA0A
:1011B400A3F207F178031A6007F178031B68B3FA06
:1011C40083F3DBB25B09DBB243F00103DBB2012B37
:1011D40002D14E4B1B681BE007F174034FF0007201
:1011E4001A6007F174031B6893FAA3F207F1700302
:1011F4001A6007F16C034FF000721A6007F16C0378
:101204001B6893FAA3F207F168031A603F4B5B6A09
:1012140007F164024FF00071116007F16402126873
:1012240092FAA2F107F16002116007F160021268FC
:10123400B2FA82F2D2B242F02002D2B202F01F021B
:10124400012101FA02F21340002B9ED12F4BDB6ADD
:1012540023F00F023B1D1B685B6A2C491343CB62CE
:101264002A4B5B6823F476123B1D1B68196A3B1DED
:101274001B68DB690B43254913434B6007F15C038F
:101284004FF080721A6007F15C031B6893FAA3F2B3
:1012940007F158031A6007F158031B68B3FA83F384
:1012A400DBB203F1845303F584139B001A46012334
:1012B4001360FFF7FDF9C7F8000209E0FFF7F8F93A
:1012C4000246D7F80032D31A022B01D9032309E1CD
:1012D40007F154034FF000721A6007F154031B68BE
:1012E40093FAA3F207F150031A6007F150031B6845
:1012F400B3FA83F3DBB25B09DBB243F00103DBB285
:10130400012B05D1014B1B681EE000BF00100240F9
:1013140007F14C034FF000721A6007F14C031B688D
:1013240093FAA3F207F148031A6007F144034FF05C
:1013340000721A6007F144031B6893FAA3F207F1E1
:1013440040031A606A4B5B6A07F13C024FF000717C
:10135400116007F13C02126892FAA2F107F1380217
:10136400116007F138021268B2FA82F2D2B242F086
:101374002002D2B202F01F02012101FA02F213404C
:10138400002B9BD0ADE007F134034FF080721A605C
:1013940007F134031B6893FAA3F207F130031A60D0
:1013A40007F130031B68B3FA83F3DBB203F1845310
:1013B40003F584139B001A4600231360FFF778F9A2
:1013C400C7F8000209E0FFF773F90246D7F80032C4
:1013D400D31A022B01D9032384E007F12C034FF025
:1013E40000721A6007F12C031B6893FAA3F207F149
:1013F40028031A6007F128031B68B3FA83F3DBB2EE
:101404005B09DBB243F00103DBB2012B02D1384BA1
:101414001B681BE007F124034FF000721A6007F108
:1014240024031B6893FAA3F207F120031A6007F15F
:101434001C034FF000721A6007F11C031B6893FA37
:10144400A3F207F118031A60294B5B6A07F114022F
:101454004FF00071116007F11402126892FAA2F1C0
:1014640007F11002116007F110021268B2FA82F259
:10147400D2B242F02002D2B202F01F02012101FADC
:1014840002F21340002B9ED12BE03B1D1B689B698D
:10149400012B01D1012325E0154B5B68C7F8FC3112
:1014A400134BDB6AC7F8F831D7F8FC3103F4C032C8
:1014B4003B1D1B68DB699A4211D1D7F8FC3103F458
:1014C40070123B1D1B681B6A9A4208D1D7F8F83189
:1014D40003F00F023B1D1B685B6A9A4201D0012393
:1014E40000E00023184607F50277BD4680BD00BF23
:1014F4000010024080B59EB000AF786039600023D0
:101504007B677B68002B01D1012362E1904B1B6850
:1015140003F007033A689A4210D98D4B1B6823F0F5
:1015240007028B493B6813430B60894B1B6803F02C
:1015340007033A689A4201D001234AE17B681B6899
:1015440003F00203002B08D0824B5B6823F0F00207
:101554007B689B687F4913434B607B681B6803F07F
:101564000103002B00F0DC807B685B68012B3CD11D
:101574004FF400333B673B6F93FAA3F3FB66FB6EB8
:10158400B3FA83F3DBB25B09DBB243F00103DBB2F2
:10159400012B02D16F4B1B680FE04FF40033BB6685
:1015A400BB6E93FAA3F37B664FF400333B663B6E4A
:1015B40093FAA3F3FB65674B5B6A4FF40032BA6599
:1015C400BA6D92FAA2F27A657A6DB2FA82F2D2B266
:1015D40042F02002D2B202F01F02012101FA02F20B
:1015E4001340002B7BD10123F3E07B685B68022B63
:1015F4003CD14FF000733B653B6D93FAA3F3FB645E
:10160400FB6CB3FA83F3DBB25B09DBB243F0010397
:10161400DBB2012B02D14F4B1B680FE04FF000737C
:10162400BB64BB6C93FAA3F37B644FF000733B641D
:101634003B6C93FAA3F3FB63464B5B6A4FF0007277
:10164400BA63BA6B92FAA2F27A637A6BB2FA82F252
:10165400D2B242F02002D2B202F01F02012101FAFA
:1016640002F21340002B3AD10123B2E002233B6380
:101674003B6B93FAA3F3FB62FB6AB3FA83F3DBB22B
:101684005B09DBB243F00103DBB2012B02D1314B26
:101694001B680DE00223BB62BB6A93FAA3F37B626F
:1016A40002233B623B6A93FAA3F3FB61294B5B6A17
:1016B4000222BA61BA6992FAA2F27A617A69B2FA3A
:1016C40082F2D2B242F02002D2B202F01F02012111
:1016D40001FA02F21340002B01D1012379E01D4BE2
:1016E4005B6823F003027B685B681A4913434B6011
:1016F400FEF7DEFF78670AE0FEF7DAFF02467B6F4B
:10170400D31A41F28832934201D9032361E0114B89
:101714005B6803F00C027B685B689B009A42EBD128
:101724000B4B1B6803F007033A689A4214D2084B28
:101734001B6823F0070206493B6813430B60044B04
:101744001B6803F007033A689A4205D0012340E07E
:1017540000200240001002407B681B6803F0040371
:10176400002B08D01D4B5B6823F4E0627B68DB68C8
:101774001A4913434B607B681B6803F00803002B72
:1017840009D0164B5B6823F460527B681B69DB004D
:10179400124913434B6000F029F801460F4B5B6874
:1017A40003F0F003F0223A613A6992FAA2F2FA6085
:1017B400FA68B2FA82F2D2B2D340094AD35C21FA6F
:1017C40003F3084A1360084B1B681846FEF72CFF06
:1017D400002318467837BD4680BD00BF0010024084
:1017E40058330008080000200000002080B48BB0AB
:1017F40000AF0023FB610023BB6100237B62002355
:101804007B6100233B622A4B5B68FB61FB6903F04D
:101814000C03042B02D0082B03D03FE0254B3B6282
:101824003FE0FB6903F470134FF47012BA60BA68B6
:1018340092FAA2F27A607A68B2FA82F2D2B2D34011
:101844001D4AD35C7B611A4BDB6A03F00F030F2242
:101854003A613A6992FAA2F2FA60FA68B2FA82F24A
:10186400D2B2D340154AD35CBB61FB6903F4803325
:10187400002B08D00F4ABB69B2FBF3F27B6902FB71
:1018840003F37B6207E00B4ABB69B2FBF3F27B69AB
:1018940002FB03F37B627B6A3B6202E0054B3B6223
:1018A40000BF3B6A18462C37BD465DF8047B704781
:1018B4000010024000127A00383300084833000850
:1018C40080B400AF034B1B681846BD465DF8047B2B
:1018D400704700BF0800002080B582B000AFFFF75A
:1018E400EFFF01460B4B5B6803F4E0634FF4E062E7
:1018F4007A607A6892FAA2F23A603A68B2FA82F2AC
:10190400D2B2D340044AD35C21FA03F31846083711
:10191400BD4680BD001002406833000880B582B027
:1019240000AFFFF7CDFF01460B4B5B6803F4605338
:101934004FF460527A607A6892FAA2F23A603A6896
:10194400B2FA82F2D2B2D340044AD35C21FA03F34E
:1019540018460837BD4680BD0010024068330008B1
:1019640080B592B000AF786000233B640023FB6332
:10197400002387F847307B681B6803F48033002B0F
:1019840000F0D4804E4BDB6903F08053002B0ED162
:101994004B4BDB694A4A43F08053D361484BDB69C4
:1019A40003F08053BB60BB68012387F84730454B85
:1019B4001B6803F48073002B18D1424B1B68414A07
:1019C40043F480731360FEF773FE386408E0FEF797
:1019D4006FFE02463B6CD31A642B01D90323D6E174
:1019E400384B1B6803F48073002BF0D0344B1B6A14
:1019F40003F44073FB63FB6B002B00F084807B6873
:101A04005B6803F44073FA6B9A427CD02C4B1B6ADC
:101A140023F44073FB634FF480333B633B6B93FAD3
:101A2400A3F3FB62FB6AB3FA83F3DBB21A46264BD9
:101A340013449B001A46012313604FF48033BB63A5
:101A4400BB6B93FAA3F37B637B6BB3FA83F3DBB2D5
:101A54001A461D4B13449B001A4600231360184A70
:101A6400FB6B1362FB6B03F00103002B4BD0FEF7FF
:101A74001FFE38640AE0FEF71BFE02463B6CD31AD5
:101A840041F28832934201D9032380E10223BB62ED
:101A9400BB6A93FAA3F37B6202233B623B6A93FA29
:101AA400A3F3FB61FB69B3FA83F3DBB25B09DBB23B
:101AB40043F00203DBB2022B08D1014B1B6A0DE099
:101AC4000010024000700040008190100223BB61AE
:101AD400BB6993FAA3F37B61A04B5B6A02223A6170
:101AE4003A6992FAA2F2FA60FA68B2FA82F2D2B2CF
:101AF40042F04002D2B202F01F02012101FA02F2C6
:101B04001340002BB7D0954B1B6A23F440727B68BB
:101B14005B68924913430B6297F84730012B05D158
:101B24008E4BDB698D4A23F08053D3617B681B683D
:101B340003F00103002B08D0884B1B6B23F0030236
:101B44007B689B68854913430B637B681B6803F0C0
:101B54000203002B08D0814B1B6B23F440327B68BB
:101B6400DB687E4913430B637B681B6803F0040343
:101B7400002B08D0794B1B6B23F440227B681B6934
:101B8400764913430B637B681B6803F02003002B27
:101B940008D0724B1B6B23F010027B68DB696F4922
:101BA40013430B637B681B6803F40033002B08D0DA
:101BB4006A4B5B6823F480027B685B6D674913435F
:101BC4004B607B681B6803F04003002B08D0634B19
:101BD4001B6B23F020027B681B6A604913430B6371
:101BE4007B681B6803F48023002B08D05B4B1B6BC2
:101BF40023F040027B685B6A584913430B637B689C
:101C04001B6803F00803002B08D0544B1B6B23F410
:101C140040127B685B69514913430B637B681B6803
:101C240003F01003002B08D04C4B1B6B23F4400231
:101C34007B689B69494913430B637B681B6803F406
:101C44000073002B08D0454B5B6823F400027B68CB
:101C54001B6B424913434B607B681B6803F0800392
:101C6400002B08D03D4BDB6A23F4F8727B689B6A37
:101C74003A491343CB627B681B6803F48073002BDF
:101C840008D0364BDB6A23F478527B68DB6A33492D
:101C94001343CB627B681B6803F48053002B08D08A
:101CA4002E4B1B6B23F480727B685B6B2B491343B5
:101CB4000B637B681B6803F40053002B08D0274B8D
:101CC4001B6B23F400727B681B6C244913430B6366
:101CD4007B681B6803F48013002B08D01F4B1B6B1D
:101CE40023F080727B689B6B1C4913430B637B68F6
:101CF4001B6803F40013002B08D0184B1B6B23F054
:101D040000727B68DB6B154913430B637B681B68AC
:101D140003F48003002B08D0104B1B6B23F4806268
:101D24007B685B6C0D4913430B637B681B6803F48E
:101D34000003002B08D0094B1B6B23F400627B6863
:101D44009B6C064913430B637B681B6803F0807329
:101D5400002B0CD0014B1B6B02E000BF00100240B3
:101D640023F400527B68DB6C0B4913430B637B68E1
:101D74001B6803F00073002B08D0074B1B6B23F484
:101D840000427B681B6D044913430B630023184610
:101D94004837BD4680BD00BF0010024080B487B004
:101DA40000AF7860396000237B6160E13B681A68AA
:101DB40001217B6901FA03F31340FB60FB68002BEC
:101DC40000F052813B685B68012B0BD03B685B6879
:101DD400022B07D03B685B68112B03D03B685B6820
:101DE400122B30D17B689B683B617B695B000322CB
:101DF40002FA03F3DB433A6913403B613B68DA6858
:101E04007B695B0002FA03F33A6913433B617B6825
:101E14003A699A607B685B683B6101227B6902FADC
:101E240003F3DB433A6913403B613B685B681B097E
:101E340003F001027B6902FA03F33A6913433B613D
:101E44007B683A695A607B68DB683B617B695B004D
:101E5400032202FA03F3DB433A6913403B613B6814
:101E64009A687B695B0002FA03F33A6913433B61A6
:101E74007B683A69DA603B685B68022B03D03B6895
:101E84005B68122B23D17B69DA087B68083253F82C
:101E940022303B617B6903F007039B000F2202FAA7
:101EA40003F3DB433A6913403B613B681A697B697E
:101EB40003F007039B0002FA03F33A6913433B61FF
:101EC4007B69DA087B680832396943F822107B6839
:101ED4001B683B617B695B00032202FA03F3DB436B
:101EE4003A6913403B613B685B6803F003027B691A
:101EF4005B0002FA03F33A6913433B617B683A6976
:101F04001A603B685B6803F08053002B00F0AC80E0
:101F14005E4B9B695D4A43F0010393615B4B9B6994
:101F240003F00103BB60BB68594A7B699B08023319
:101F340052F823303B617B6903F003039B000F22BB
:101F440002FA03F3DB433A6913403B617B68B3F164
:101F5400904F25D07B684F4A93421FD07B684E4AEE
:101F6400934219D07B684D4A934213D07B684C4A04
:101F740093420DD07B684B4A934207D07B684A4A10
:101F8400934201D106230CE007230AE0052308E06D
:101F9400042306E0032304E0022302E0012300E01B
:101FA40000237A6902F00302920093403A691343D2
:101FB4003B6137497B699B0802333A6941F8232026
:101FC4003A4B1B683B61FB68DB433A6913403B6156
:101FD4003B685B6803F48033002B03D03A69FB68E9
:101FE40013433B61314A3B691360304B5B683B618F
:101FF400FB68DB433A6913403B613B685B6803F46D
:102004000033002B03D03A69FB6813433B61274A32
:102014003B695360254B9B683B61FB68DB433A6932
:1020240013403B613B685B6803F48013002B03D0CF
:102034003A69FB6813433B611C4A3B6993601B4B41
:10204400DB683B61FB68DB433A6913403B613B68F7
:102054005B6803F40013002B03D03A69FB68134355
:102064003B61124A3B69D3607B6901337B613B6806
:102074001A687B6922FA03F3002B7FF497AE00BF42
:102084001C37BD465DF8047B704700BF001002405A
:10209400000001400004004800080048000C00480B
:1020A40000100048001400480018004800040140D3
:1020B40080B483B000AF78600B467B8013467B709E
:1020C4007B78002B03D07A887B689A6102E07A8857
:1020D4007B689A6200BF0C37BD465DF8047B70478D
:1020E40080B485B000AF78600B467B807B685B6909
:1020F400FB607A88FB6813401A04FB68D9437B8829
:102104000B401A437B689A6100BF1437BD465DF8E3
:10211400047B704780B584B000AF78600023FB6017
:102124007B68002B01D1012337E07B68022283F80E
:1021340021207B681B681B68FB60FB6823F47F53CA
:1021440023F03003FB607B685A687B689B681A4302
:102154007B68DB681A437B681B691A437B685B698D
:102164001A437B689B691A437B68DB691343FA68EB
:102174001343FB607B681B68FA681A60786800F098
:10218400B3F87B6800229A637B68012283F82120DC
:102194007B68002283F82020002318461037BD46B0
:1021A40080BD80B584B000AF78607B68DB6B1B6852
:1021B400FB607B681B681B68BB607B681B6C04222C
:1021C4009A40FB681340002B24D0BB6803F004033F
:1021D400002B1FD07B681B681B6803F02003002BB7
:1021E40007D17B681B681A687B681B6822F00402AD
:1021F4001A607B681A6C7B68DB6B042101FA02F2BB
:102204005A607B68DB6A002B6AD07B68DB6A78687B
:10221400984765E07B681B6C02229A40FB68134078
:10222400002B2CD0BB6803F00203002B27D07B6863
:102234001B681B6803F02003002B0BD17B681B6811
:102244001A687B681B6822F00A021A607B68012204
:1022540083F821207B681A6C7B68DB6B022101FA0E
:1022640002F25A607B68002283F820207B689B6A14
:10227400002B35D07B689B6A7868984730E07B6890
:102284001B6C08229A40FB681340002B28D0BB68C3
:1022940003F00803002B23D07B681B681A687B6853
:1022A4001B6822F00E021A607B681A6C7B68DB6B79
:1022B400012101FA02F25A607B6801229A637B6869
:1022C400012283F821207B68002283F820207B6888
:1022D4001B6B002B04D07B681B6B78689847FFE767
:1022E40000BF1037BD4680BD80B483B000AF7860B6
:1022F4007B681B681A46144B9A420FD87B681B688C
:102304001A46124B1344124AA2FB03231B099A00D8
:102314007B681A647B680F4ADA630EE07B681B688B
:102324001A460D4B13440A4AA2FB03231B099A00C5
:102334007B681A647B68094ADA6300BF0C37BD46C0
:102344005DF8047B704700BF07040240F8FFFDBF3F
:10235400CDCCCCCC00000240F8FBFDBF0004024011
:1023640080B485B000AF78607B6803F00703FB603E
:102374000C4BDB68BB60BA684FF6FF031340BB60CD
:10238400FB681A02BB68134343F0BF6343F4003392
:10239400BB60044ABB68D36000BF1437BD465DF818
:1023A400047B704700ED00E080B400AF044BDB68B1
:1023B4001B0A03F007031846BD465DF8047B70470B
:1023C40000ED00E080B483B000AF0346FB7197F9E1
:1023D4000730002B0BDBFB7903F01F02074997F949
:1023E40007305B09012000FA02F241F8232000BF04
:1023F4000C37BD465DF8047B704700BF00E100E088
:1024040080B483B000AF03463960FB7197F907309D
:10241400002B0ADB3B68DAB20C4997F9073012014A
:10242400D2B20B4483F800230AE03B68DAB20849CD
:10243400FB7903F00F03043B1201D2B20B441A766A
:1024440000BF0C37BD465DF8047B704700E100E037
:1024540000ED00E080B489B000AFF860B9607A6044
:10246400FB6803F00703FB61FB69C3F10703042B5B
:1024740028BF0423BB61FB690433062B02D9FB6923
:10248400033B00E000237B614FF0FF32BB6902FA9B
:1024940003F3DA43BB681A407B699A404FF0FF317B
:1024A4007B6901FA03F3D9437B680B401343184655
:1024B4002437BD465DF8047B7047000080B582B0C8
:1024C40000AF78607B68013BB3F1807F01D30123C7
:1024D4000FE00A4A7B68013B53600F214FF0FF3045
:1024E400FFF78EFF054B00229A60044B07221A6007
:1024F400002318460837BD4680BD00BF10E000E049
:1025040080B582B000AF78607868FFF729FF00BF1C
:102514000837BD4680BD80B586B000AF0346B960BC
:102524007A60FB7300237B61FFF73EFF78617A6872
:10253400B9687869FFF78EFF024697F90F301146A4
:102544001846FFF75DFF00BF1837BD4680BD80B554
:1025540082B000AF0346FB7197F907301846FFF7C6
:1025640031FF00BF0837BD4680BD80B582B000AFE3
:1025740078607868FFF7A2FF034618460837BD461F
:1025840080BD000080B400AF064BD3F88830054A04
:1025940043F47003C2F8883000BFBD465DF8047B85
:1025A400704700BF00ED00E080B400AFFEE780B4E8
:1025B40000AFFEE780B596B000AFF860B9607A600E
:1025C400FB70524B1A68524913469B001344DB00BC
:1025D4000B440833BA681A604C4B1A684C491346CA
:1025E4009B001344DB000B440C33FA781A70474BFE
:1025F4001A6813469B001344DB001033444A134407
:102604000433F968184600F06CFE404B19683F4BE0
:102614001A68C8B23E4913469B001344DB000B44BE
:10262400043302461A70394B1A68394913469B0021
:102634001344DB000B440D3302221A70334B1A6827
:10264400334913469B001344DB000B441033002230
:102654001A6000237B630123BB630223FB63032310
:102664003B640C237B642B4BBB647B68FB644FF0A3
:1026740080733B6504237B610523BB610623FB61F7
:1026840007233B6208237B620923BB620A23FB62A4
:102694000B233B63204B1A68BB6813441E4A136028
:1026A4001D4B1B687B657B6D203B7B6507F1340309
:1026B40020221946786D00F001FE7B6D203B7B657E
:1026C40007F1140320221946786D00F0F7FD0F4B33
:1026D4001A68796D0E4813469B001344DB000344CB
:1026E40019600A4B1B680133084A1360074B1B68C7
:1026F4005A1E074913469B001344DB000B44043362
:102704001B7818465837BD4680BD00BF84020020A0
:102714002C000020AD2500080C00002080B400AF80
:1027240072B6074B1A6813469B001344DB00103340
:10273400044A134404331846BD465DF8047B7047CD
:10274400880200202C00002080B582B000AF7860A1
:1027540072B6134B1A68134913469B001344DB00EB
:102764000B440D3300221A70FDF7A2FF01460C4BF7
:102774001A687B6819440B4813469B001344DB001A
:1027840003441033196062B600F010F8064B5B681E
:10279400054A43F08053536000BF0837BD4680BDEF
:1027A400880200202C00002000ED00E090B583B0EA
:1027B40000AF72B64D4B1A684D4913469B00134443
:1027C400DB000B440D331B78032B0AD1474B1A68EB
:1027D400474913469B001344DB000B440D3302228C
:1027E4001A70444B1B68444A13600123FB713F4B2E
:1027F4001B683B603B6801333B60404B1A683B6895
:10280400B3FBF2F102FB01F29B1A3B60374B1B68EE
:102814003A689A422FD036493A6813469B001344CB
:10282400DB000B440D331B78002B13D130493A687D
:1028340013469B001344DB000B4410331C68FDF764
:1028440037FF03469C42D5D80023FB71274A3B68D7
:10285400136011E026493A6813469B001344DB00D9
:102864000B440D331B78012BC4D00023FB711F4A8A
:102874003B68136000E000BFFB79002B1BD0204BAA
:102884001A6813469B001344DB00194A1344194A7F
:1028940013601B4B1B68154A1360174B1B685B7B4B
:1028A400022B1DD1144B1B68124A1360144B1B6876
:1028B4000E4A136014E00D4B1A680D4913469B0031
:1028C4001344DB000B440D3303221A70074B1A68C0
:1028D40013469B001344DB00054A1344054A136066
:1028E40062B600BF0C37BD4690BD00BF8802002011
:1028F4002C0000205C0300206003002084020020E0
:102904008C02002072B6064800680068B0E8F00F38
:1029140080F3098862B66FF00200004700BF000030
:102924005C03002072B6EFF309800949096820E9C5
:10293400F00F0860074800680068B0E8F00F80F303
:10294400098862B66FF00200004700BF00BF0000B4
:10295400600300205C03002080B500AF0023134A0D
:1029640040211348FFF726FE03461A46114B1A600E
:10297400104B1A68104913469B001344DB000B44A8
:102984000D3301221A7002220F216FF00100FFF7AC
:10299400C2FD0A4B1A6813469B001344DB00064A27
:1029A4001344074A136000DFFEE700BFB3250008A5
:1029B4002C3300088C0200202C0000208802002008
:1029C4005C03002080B500AFFDF75EFEFFF7EEFE6E
:1029D400034B5B68024A43F08053536000BF80BDE1
:1029E40000ED00E080B582B000AF78607B68002B1A
:1029F40001D1012340E07B689B6F002B06D17B68EB
:102A0400002283F874207868FDF78AFD7B6824220D
:102A14009A677B681B681A687B681B6822F001024E
:102A24001A60786800F0C0F80346012B01D1012335
:102A340022E07B685B6A002B02D0786800F088FA99
:102A44007B681B685A687B681B6822F490425A6052
:102A54007B681B689A687B681B6822F02A029A606C
:102A64007B681B681A687B681B6842F001021A6065
:102A7400786800F00FFB034618460837BD4680BD52
:102A840080B58AB002AFF860B9603B601346FB8042
:102A9400FB689B6F202B40F08280BB68002B02D028
:102AA400FB88002B01D101237AE0FB6893F8743092
:102AB400012B01D1022373E0FB68012283F8742007
:102AC400FB680022C3F88020FB6821229A67FDF787
:102AD400EFFD7861FB68FA88A3F85020FB68FA8858
:102AE400A3F85220FB689B68B3F5805F08D1FB68AC
:102AF4001B69002B04D10023FB61BB68BB6103E0AD
:102B0400BB68FB610023BB61FB68002283F874206F
:102B14002DE03B6800937B6900228021F86800F077
:102B240002FB0346002B01D0032339E0FB69002B91
:102B34000BD1BB691A88FB681B68C2F3080292B206
:102B44001A85BB690233BB6108E0FB691A78FB682C
:102B54001B6892B21A85FB690133FB61FB68B3F809
:102B640052309BB2013B9AB2FB68A3F85220FB6837
:102B7400B3F852309BB2002BCBD13B6800937B69F6
:102B840000224021F86800F0CEFA0346002B01D061
:102B9400032305E0FB6820229A67002300E0022358
:102BA40018462037BD4680BD80B588B000AF786038
:102BB4000023BB777B689A687B681B691A437B6830
:102BC4005B691A437B68DB6913437B617B681B6821
:102BD4001A68AA4B13407A68126879690B43136028
:102BE4007B681B685B6823F440517B68DA687B6808
:102BF4001B680A435A607B689B697B617B681B6A1C
:102C04007A6913437B617B681B689B6823F430619A
:102C14007B681B687A690A439A607B681B68984AD8
:102C2400934221D1974B1B6B03F00303032B17D85B
:102C340001A252F823F000BF4D2C0008592C0008C3
:102C44005F2C0008532C00080123FB77B2E0022319
:102C5400FB77AFE00423FB77ACE00823FB77A9E024
:102C64001023FB7700BFA5E07B681B68864A93426C
:102C740023D1844B1B6B03F44033B3F5803F12D054
:102C8400B3F5803F02D8002B07D012E0B3F5003F24
:102C94000CD0B3F5403F03D00BE00023FB7789E071
:102CA4000223FB7786E00423FB7783E00823FB778A
:102CB40080E01023FB7700BF7CE07B681B68734ACD
:102CC400934223D16F4B1B6B03F44023B3F5802F46
:102CD40012D0B3F5802F02D8002B07D012E0B3F541
:102CE400002F0CD0B3F5402F03D00BE00023FB776B
:102CF40060E00223FB775DE00423FB775AE00823BE
:102D0400FB7757E01023FB7700BF53E07B681B6819
:102D14005F4A934223D15B4B1B6B03F44013B3F51F
:102D2400801F12D0B3F5801F02D8002B07D012E009
:102D3400B3F5001F0CD0B3F5401F03D00BE0002304
:102D4400FB7737E00223FB7734E00423FB7731E0A1
:102D54000823FB772EE01023FB7700BF2AE07B6873
:102D64001B684C4A934223D1464B1B6B03F440032C
:102D7400B3F5800F12D0B3F5800F02D8002B07D023
:102D840012E0B3F5000F0CD0B3F5400F03D00BE005
:102D94000023FB770EE00223FB770BE00423FB7791
:102DA40008E00823FB7705E01023FB7700BF01E070
:102DB4001023FB777B68DB69B3F5004F6ED1FB7F93
:102DC400082B28D801A252F823F000BFF52D0008E3
:102DD400FD2D0008052E00081B2E00080B2E0008F0
:102DE4001B2E00081B2E00081B2E0008132E0008A3
:102DF400FEF772FDB86113E0FEF790FDB8610FE0D5
:102E0400254BBB610CE0FEF7F1FCB86108E04FF420
:102E14000043BB6104E00023BB610123BB7700BF17
:102E2400BB69002B00F08680BB695A007B685B6835
:102E34005B081A447B685B68B2FBF3F39BB23B61AB
:102E44003B690F2B16D93B69B3F5803F12D23B691E
:102E54009BB223F00F03FB813B695B089BB203F039
:102E640007039AB2FB891343FB817B681B68FA89C9
:102E7400DA605FE00123BB775CE000BFF369FFEF3A
:102E84000038014000100240004400400048004067
:102E9400004C00400050004000127A00FB7F082BD9
:102EA40027D801A252F823F0D12E0008D92E000809
:102EB400E12E0008F72E0008E72E0008F72E000880
:102EC400F72E0008F72E0008EF2E0008FEF704FD89
:102ED400B86113E0FEF722FDB8610FE01B4BBB6144
:102EE4000CE0FEF783FCB86108E04FF40043BB61DB
:102EF40004E00023BB610123BB7700BFBB69002B47
:102F040018D07B685B685A08BB691A447B685B68A5
:102F1400B2FBF3F39BB23B613B690F2B08D93B69CE
:102F2400B3F5803F04D27B681B683A69DA6001E03C
:102F34000123BB777B6800225A667B6800229A666D
:102F4400BB7F18462037BD4680BD00BF00127A0003
:102F540080B483B000AF78607B685B6A03F00103E0
:102F6400002B0AD07B681B685B6823F400317B6804
:102F74009A6A7B681B680A435A607B685B6A03F041
:102F84000203002B0AD07B681B685B6823F4803142
:102F94007B68DA6A7B681B680A435A607B685B6AF1
:102FA40003F00403002B0AD07B681B685B6823F4DE
:102FB40080217B681A6B7B681B680A435A607B68B4
:102FC4005B6A03F00803002B0AD07B681B685B680C
:102FD40023F400417B685A6B7B681B680A435A6080
:102FE4007B685B6A03F01003002B0AD07B681B68C4
:102FF4009B6823F480517B689A6B7B681B680A4347
:103004009A607B685B6A03F02003002B0AD07B681C
:103014001B689B6823F400517B68DA6B7B681B6830
:103024000A439A607B685B6A03F04003002B1AD062
:103034007B681B685B6823F480117B681A6C7B686F
:103044001B680A435A607B681B6CB3F5801F0AD166
:103054007B681B685B6823F4C0017B685A6C7B68DF
:103064001B680A435A607B685B6A03F08003002B89
:103074000AD07B681B685B6823F400217B689A6C28
:103084007B681B680A435A6000BF0C37BD465DF875
:10309400047B704780B586B002AF78607B680022FD
:1030A400C3F88020FDF704FBF8607B681B681B688D
:1030B40003F00803082B0ED16FF07E430093FB68E6
:1030C40000224FF40011786800F02DF80346002B1D
:1030D40001D0032323E07B681B681B6803F004030F
:1030E400042B0ED16FF07E430093FB6800224FF453
:1030F4008001786800F017F80346002B01D0032301
:103104000DE07B6820229A677B682022DA677B685F
:1031140000221A667B68002283F874200023184674
:103124001037BD4680BD80B584B000AFF860B9608B
:103134003B601346FB715EE0BB69B3F1FF3F5AD0BD
:10314400FDF7B6FA02463B68D31ABA699A4202D32B
:10315400BB69002B1BD1FB681B681A68FB681B68E2
:1031640022F4D0721A60FB681B689A68FB681B68BB
:1031740022F001029A60FB6820229A67FB682022F1
:10318400DA67FB68002283F87420032343E0FB68BA
:103194001B681B6803F00403002B2CD0FB681B681E
:1031A400DB6903F40063B3F5006F24D1FB681B688B
:1031B4004FF400621A62FB681B681A68FB681B689C
:1031C40022F4D0721A60FB681B689A68FB681B685B
:1031D40022F001029A60FB6820229A67FB68202291
:1031E400DA67FB682022C3F88020FB68002283F89A
:1031F400742003230FE0FB681B68DA69BB68134083
:10320400BA689A420CBF01230023DBB21A46FB7949
:103214009A4291D0002318461037BD4680BD000065
:10322400DFF834D00D480E490E4A002302E0D4588A
:10323400C4500433C4188C42F9D30B4A0B4C0023FA
:1032440001E013600432A242FBD3FFF79BF900F0C4
:1032540011F8FDF707F8FEE7000001200000002048
:103264001000002078330008100000206443002080
:10327400FEE7000070B50D4E0D4CA41BA4100025F4
:10328400A54209D10B4E0C4C00F034F8A41BA41039
:103294000025A54205D170BD56F825309847013563
:1032A400EEE756F8253098470135F2E77033000809
:1032B40070330008703300087433000810B5431EDF
:1032C4000A44914200D110BD11F8014B03F8014F9B
:1032D400F7E702440346934200D1704703F8011B09
:1032E400F9E7034611F8012B03F8012B002AF9D161
:1032F40070470000F8B500BFF8BC08BC9E46704794
:0C330400F8B500BFF8BC08BC9E4670473E
:10331000626C7565206C6564000000007265642055
:103320006C6564007461736B2033000049444C4544
:103330005F5441534B0000000203040506070809CF
:103340000A0B0C0D0E0F10100102030405060708EE
:10335000090A0B0C0D0E0F10000000000000000009
:10336000010203040607080900000000010203042B
:04337000B901000897
:0433740095010008B7
:10337800100000000100000000127A006403002021
:040000050800322598
:00000001FF
